:020000040800F2
:10000000D07C00206D030008B33C0008CD3400080C
:10001000B13C00089D040008735A0008000000006D
:10002000000000000000000000000000AD02000819
:1000300049090008000000000903000861460008A3
:100040008703000887030008870300088703000868
:100050008703000887030008870300088703000858
:100060008703000887030008870300088703000848
:100070008703000887030008870300088703000838
:100080008703000887030008870300088703000828
:100090008703000887030008870300088703000818
:1000A00087030008E9470008870300088703000862
:1000B00087030008870300088703000887030008F8
:1000C00087030008870300088703000887030008E8
:1000D00087030008870300088703000887030008D8
:1000E000870300088703000800000000870300085A
:1000F00087030008870300088703000887030008B8
:1001000087030008870300088703000887030008A7
:100110008703000887030008870300088703000897
:100120008703000887030008870300088703000887
:100130008703000887030008870300088703000877
:1001400000000000000000000000000000000000AF
:100150008703000887030008870300088703000857
:100160008703000887030008870300088703000847
:1001700087030008870300088703000800000000C9
:100180008703000887030008870300088703000827
:100190008703000887030008870300088703000817
:1001A0008703000887030008870300088703000807
:1001B00087030008870300088703000887030008F7
:1001C00087030008870300088703000887030008E7
:1001D00087030008870300088703000887030008D7
:1001E00087030008870300088703000887030008C7
:1001F00087030008870300088703000887030008B7
:1002000087030008870300088703000887030008A6
:100210008703000887030008870300088703000896
:100220008703000887030008870300080000000018
:100230008703000887030008000000008703000808
:100240008703000887030008870300088703000866
:100250008703000887030008870300088703000856
:100260008703000887030008870300088703000846
:1002700087030008870300088703000800000000C8
:1002800087030008870300088703000800000000B8
:100290000000000087030008DFF80CD000F0ECF845
:1002A00000480047515B0008D07C00202C4B1968A7
:1002B0000868B0E8F04F80F30988BFF36F8F4FF004
:1002C000000080F3118870470000000008480068B3
:1002D000006880F308884FF0000080F3148862B64D
:1002E00061B6BFF34F8FBFF36F8F00DF00BF00BF5A
:1002F00008ED00E0DFF80C00016841F470010160D6
:10030000704700BF88ED00E0EFF30980BFF36F8F07
:10031000134B1A681EF0100F08BF20ED108A20E959
:10032000F04F106009B44FF0500080F31188BFF314
:100330004F8FBFF36F8F05F0D3FF4FF0000080F3B6
:10034000118809BC19680868B0E8F04F1EF0100F5A
:1003500008BFB0EC108A80F30988BFF36F8F704735
:1003600070000020EFF305807047000006488047CA
:1003700006480047FEE7FEE7FEE7FEE7FEE7FEE78A
:10038000FEE7FEE7FEE7FEE74D470008990200089A
:100390002DE9F05F0546002092469B4688460646BA
:1003A000814640241BE0284641464746224600F04D
:1003B00053F853465A46C01A914110D31146184675
:1003C000224600F03AF82D1A67EB01084F46224604
:1003D0000120002100F031F817EB00094E41201EEA
:1003E000A4F10104DFDC484631462A464346BDE815
:1003F000F09F40EA01039B0703D009E008C9121FE0
:1004000008C0042AFAD203E011F8013B00F8013BCE
:10041000521EF9D27047D2B201E000F8012B491EFA
:10042000FBD270470022F6E710B513460A46044691
:100430001946FFF7F0FF204610BD202A04DB203AC2
:1004400000FA02F1002070479140C2F1200320FA27
:1004500003F3194390407047202A04DB203A21FA25
:1004600002F00021704721FA02F3D040C2F12002CD
:100470009140084319467047064C074D06E0E06876
:1004800040F0010394E8070098471034AC42F6D3DB
:10049000FFF706FFEC6F00080C700008FEE710B5D0
:1004A0000446062006F0ECF8204606F023F9BDE8E5
:1004B000104005F0BDBF192010B506F0E1F802208C
:1004C00005F01CFB05F0B4FF044605F0B1FF04EB9A
:1004D000002080B210BD262010B506F0D1F8BDE88E
:1004E000104005F0A5BF10B50024272006F0C8F87D
:1004F000052000F02BFA00F048F8102804D1601C09
:10050000C82CC4B2F4D9FA2010BD70B5054623201A
:1005100006F0B6F8002415F8010B06F0EBF8641CA1
:10052000E4B2042CF7D370BD70B50546222006F066
:10053000A7F8002415F8010B06F0DCF8641CE4B2FF
:10054000042CF7D370BD70B50546212006F098F84D
:10055000002415F8010B06F0CDF8641CE4B2062C5B
:10056000F7D3BDE87040642000F0F0B970B50546DF
:10057000242006F085F8002415F8010B06F0BAF8DF
:10058000641CE4B2042CF7D370BD2C2010B506F027
:1005900077F8BDE8104005F04BBF70B50D0016466A
:1005A000044618D03C2006F06BF8204606F0A2F86E
:1005B000E8B206F09FF8280A06F09CF8012005F042
:1005C0009DFA002405E005F033FF641CA4B206F890
:1005D000010BAC42F7D370BD10B504463B2006F0CA
:1005E0004FF8204606F086F805F022FF044605F095
:1005F0001FFF04EB002080B210BD10B50446302070
:1006000006F03EF8204606F075F8022005F076FA6E
:10061000BDE8104005F00CBF10B5FFF74CFFC00659
:1006200004D5BDE81040002000F0CCB810BD00009B
:10063000652010B5FFF733FF9A2801D0FA2010BDCE
:100640000A48FFF780FF09481838FFF76DFF074891
:100650001438FFF75AFF05481038FFF787FF0A20C4
:1006600000F074F9BDE81040FFF73DBF2400002002
:1006700070B500240546352006F002F8284606F03D
:1006800039F8052000F062F9FFF77FFF102804D148
:10069000601CC82CC4B2F4D9FA2070BD70B51546E0
:1006A0000E460446392005F0EBFF204606F022F8FE
:1006B000E8B206F01FF8280A06F01CF8002405E04E
:1006C00016F8010B06F016F8641CA4B2AC42F7D37E
:1006D00070BD70B50C460546312005F0D1FF2846A7
:1006E00006F008F8207806F005F8607806F002F8C1
:1006F000A07805F0FFFFE078BDE8704005F0FABF94
:1007000070B50C460546322005F0BAFF284605F0C4
:10071000F1FFE0B205F0EEFF200ABDE8704005F001
:10072000E9BF70B50D460446342005F0A9FF204608
:1007300005F0E0FF2846BDE8704005F0DBBF70B56E
:100740000C460546332005F09BFF284605F0D2FFF6
:10075000E0B205F0CFFF200ABDE8704005F0CABF47
:100760001749002010B5FFF7B4FF02210020FFF762
:10077000D8FF134C0020A18AFFF7C2FFE18A0020B6
:10078000FFF7DDFF0020FFF773FF05F0CFF9012031
:1007900004F12001FFF79DFF02210120FFF7C1FFB7
:1007A000E18E0120FFF7CBFFA18E0120FFF7A8FF0C
:1007B0000120FFF75DFFBDE8104005F0B7B900006C
:1007C000EC20002070B50646FFF717FFC10733D1B4
:1007D000810731D440072FD53046FFF7FDFE0500D5
:1007E0002AD04FF48050854200D905463848294622
:1007F00000EB063230461446FFF7CFFE0E2D01D037
:10080000212D19D1207A334EF02801D10E2D14D08C
:10081000212D11D104F1080003F0B4FB20280BD1E5
:100820003078401CC0B23070202805D92A484021B9
:1008300000F0A1F90020307070BD00210820225C7A
:10084000401CC0B211440D28C9B2F8D3607B884265
:1008500025D1234A6168C6F81E10617A1170214AB9
:10086000A17A1E481170217B012904D0022904D0ED
:10087000032904D005E0262102E0062100E00F2133
:100880000170194C0121204600F075F980212046A5
:1008900000F071F94FF48041204600F06CF904F04B
:1008A0000BF803F0B3FD02F051FF03F083FB094A9C
:1008B000002101230846283203F016FC054A0123D3
:1008C000BDE870403C320221002003F00DBC000066
:1008D000D00000200200002000000258000000208C
:1008E00052000020530000200004025810B5144CA0
:1008F00000220821204600F045F9642000F026F887
:1009000001222046082100F03DF9642000F01EF885
:1009100001222046D10200F035F901222046910241
:1009200000F030F901222046510200F02BF9054871
:100930000022082100F026F9BDE8104003F046BE71
:1009400000080258001802587047704770B50446F6
:1009500000F024F90546601C02D0044800780444E5
:1009600000F01CF9401BA042FAD370BD5C000020CF
:100970002DE9F84F714C00234FF0B04E4FF00109B4
:100980004FF0030B4FF00F0AD0E000BF09FA03F855
:1009900012EA080274D04D68022D01D0122D0FD139
:1009A000DD085F0700EB850500950E692D6AFF0ED7
:1009B0000AFA07FCBE4025EA0C052E43009D2E6274
:1009C0005D000F7906680BFA05FC07F0030726EABD
:1009D0000C06AF40374307604E68012E05D0022E4B
:1009E00003D0112E01D0122E0FD18668CF6826EACF
:1009F0000C06AF403743876046680F7926EA080641
:100A0000C7F300179F4037434760C6688F6826EAE0
:100A10000C06AF403743C7604D68ED0030D5484DF8
:100A20002E6846F002062E602D6823F0030606F1BC
:100A3000B04605F0020500959D072F0FD6F8085423
:100A4000DFF800810AFA07FC404525EA0C0502D1CF
:100A50004FF0000C41E0DFF8F0C0604502D14FF0EC
:100A6000010C3AE0DFF8E4C0604502D14FF0020C1F
:100A700033E0DFF8DCC0604503D14FF0030C2CE01D
:100A800053E0DFF8D0C0604502D14FF0040C24E001
:100A9000DFF8C4C0604502D14FF0050C1DE0DFF85F
:100AA000BCC0604502D14FF0060C16E0DFF8B0C0C4
:100AB000604502D14FF0070C0FE0DFF8A8C0604599
:100AC00002D14FF0080C08E0DFF89CC0604502D16D
:100AD0004FF0090C01E04FF00A0C0CFA07FC4CEA4D
:100AE000050CC6F808C425684E6825EA0205F60319
:100AF00000D51543256065684E6825EA0205B603F2
:100B000000D5154365604F687546DEF80060FF024A
:100B100026EA020600D516432E604F686E68BF02B3
:100B200026EA020600D516436E605B1C0A6832FA9C
:100B300003F57FF42BAFBDE8F88F0000800000586C
:100B4000F4440258000002580004025800080258F9
:100B5000000C0258001002580014025800180258E5
:100B6000001C025800200258002402580069084066
:100B700000D001207047426931EA020200D1090425
:100B8000816170470AB1816170470904FBE7000089
:100B900001480068000C70470010005C0148806844
:100BA000704700005C00002030B590F84120202AFA
:100BB00024D190F84020012A20D0012380F8403031
:100BC000242280F84120202300240268156825F0A3
:100BD000010515600268156825F4805515600268E6
:100BE00015680D43156001680A6842F001020A6049
:100BF00080F8413080F84040002030BD022030BDF8
:100C000030B590F84120202A22D190F84020012AC6
:100C10001ED0012380F84030242280F84120202477
:100C200000250268136823F001031360026813684B
:100C300023F4706343EA0121116001680A6842F0FD
:100C400001020A6080F8414080F84050002030BD29
:100C5000022030BD70B5040004D094F84100002596
:100C600010B106E0012070BD204684F8405000F02D
:100C7000F9F8242084F841002068016821F001017E
:100C80000160D4E9001020F070600861206881687C
:100C900021F400418160E06821680128A06806D045
:100CA00040F404408860E068022803D006E040F485
:100CB0000040F7E721684FF4006048602021206879
:100CC000114A4368134343602068C26822F400421B
:100CD000C26054F8106B0DCC104340EA0320F06062
:100CE00054F81C3CD4E900021043186054F81C0D61
:100CF000026842F001020260656484F841102563D5
:100D000084F84250002070BD008000022DE9FF4FA2
:100D100083B0044690F841009A469346DDE9108777
:100D2000DDF84890202871D15FEA080014D09FB107
:100D300094F84000012869D0012084F84000FFF7B2
:100D40002DFF0122064619230090D103204602F010
:100D50005BFC00286ED103E04FF40070606469E032
:100D60000025C4F82480212184F84110402084F813
:100D7000420065646785534665635A460499204678
:100D8000CDE9009602F0F8FB10B184F8405051E034
:100D9000608DFF274FF08078FF284FF0007A04D94C
:100DA00027853A464346009505E0608D53462085E9
:100DB000009594F828202046049902F00FFC324652
:100DC0004946204602F074FCA0BB606A21680078A6
:100DD0008862606A401C6062608D401E6085208D64
:100DE000401E80B22085618DD9B1D0B900224B461A
:100DF00080212046009602F007FCD8B9608DFF28BC
:100E000005D927853A464346009506E026E0608DE1
:100E100053462085009594F828202046049902F036
:100E2000DDFB608D0028CAD132464946204602F0DB
:100E300018FC18B1012007B0BDE8F08F2068202110
:100E4000074AC161206843681340436084F8411039
:100E500084F84250002084F84050ECE70220EAE792
:100E600000E800FE10B586B0044614216846FFF77E
:100E7000D9FA13492068884220D11248016841F00C
:100E80000201016000680423122200F002000590B4
:100E900000204FF4107100916946CDE90120CDE9A1
:100EA00003030948FFF764FD06480830016841F470
:100EB00000110160006800F40010059006B010BD3C
:100EC00000540040E044025800040258024881687F
:100ED00002781144816070475C000020032010B547
:100EE00000F0A2F801F000F90E490F4A0F4B0C6810
:100EF000C4F30324145D04F01F04E0401860096883
:100F000001F00F01515C01F01F01C8400849086061
:100F1000002000F00FF808B1012010BD00F044F8E7
:100F2000002010BD18440258BC6F00086800002063
:100F30006C00002010B50022014619208AB000F094
:100F400053F8192000F042F81348016841F00101FC
:100F50000160006808A900F001000990684601F0EE
:100F60005BF801F0AFF80D49400000220C4CB0FBDB
:100F7000F1F10C4840F2E7330460C0E90332491E46
:100F8000C0E9011202F08AF810B101200AB010BDC8
:100F9000044802F0CBF8F9E7F044025840420F0051
:100FA000000001409C270020074882B0016841F002
:100FB00002010160006800220F2100F00200009091
:100FC000901E02B000F010B8F4440258002809DB6B
:100FD000410900F01F028900012001F1E021904049
:100FE000C1F80001704700000E4BF0B41B680D46BD
:100FF000C3F30223C3F10706042E00D90426191DEA
:10100000072901D2002300E0DB1E012404FA06F1C7
:101010009C40491E2940641E994014402143F0BC65
:1010200004F04CBD0CED00E0064900F0070210B5DD
:101030004FF6FF040868044B204040EA02201843A2
:10104000086010BD0CED00E00000FA050168012306
:10105000C0F8FC33002280F8F4238869044A40F089
:1010600000608861486D10434865002070470000AB
:10107000030000102DE9F04104008AB005D094F877
:10108000BD030025266820B108E001200AB0BDE8B4
:10109000F081204684F8BC5300F066F8032084F801
:1010A000BD03F06BC00500D42561206804F0A2FCEC
:1010B00004F11001684628228846FFF79AF994E85F
:1010C0000F0004F06FFB0227D8BB2068002104F05A
:1010D000B9FC0020012610E0C0EBC001421C04EB6B
:1010E000810181F83D6081F83F504D648D640D654C
:1010F00081F83C00A1F84200D0B261688142EBD88F
:10110000002011E0C0EBC001421C04EB810181F81A
:10111000FD5181F8FF51C1F80452C1F80852C1F8DD
:10112000105281F8FC01D0B261688142EAD82822CD
:1011300041466846FFF75DF994E80F0004F096FB1E
:1011400010B184F8BD73A0E7606A84F8385084F861
:10115000BD63012802D12046FFF778FF206804F024
:1011600079FB002092E7000030B587B004461421D7
:101170006846FFF757F918492068884229D117486F
:10118000016841F001010160006800240221144D52
:1011900000F0010005904FF4E8500A228DE813009A
:1011A000CDE9034269462846FFF7E2FB4FF40070A1
:1011B0006946CDE9000428460294FFF7D9FB0748A9
:1011C0000838016841F000610160006800F00060CB
:1011D000059007B030BD000000000840E044025810
:1011E00000000258124970B50A68520706D40A680E
:1011F00002F00702824201D0012070BD0A6822F08D
:10120000070202430A60FFF7C9FC094D4FF47A76E2
:101210000446083D07E000BFFFF7C0FC001BB042DA
:1012200001D9032070BD28688004F5D5002070BD69
:101230000C4802580248016841F080710160704713
:101240000C48025810B500F04FFF064A06491268D4
:10125000064BC2F303229A5C02F01F02D0400860E2
:1012600010BD00001844025868000020BC6F000840
:1012700010B500F0FFFE05490968054AC1F30211E7
:10128000515C01F01F01C84010BD0000204402580D
:10129000BC6F0008494930B5484C0B1D0A6814342E
:1012A00009681D68246802F0030305F01002C1F309
:1012B0000531C4F3CC04002914FB02F200EE102A1D
:1012C000F8EE400A75D03F4A9FED3D1AB7EE000A8E
:1012D0006BB1DFED3D1A012B01D0022B64D002EE81
:1012E000101A1168F8EE422A81EEA22A21E0334C4E
:1012F000283C23689B0612D5344B246801EE901AD3
:101300001168C4F3C104F8EE612AE34001EE903A9B
:10131000C1F30801F8EE611A81EEA22A0BE001EE9A
:10132000901ADFED2B2A00BFF8EE611A116882EEE9
:10133000A12AC1F3080101EE901A1168F8EE611AB2
:1013400040EE811A71EE800A62EE200AC1F3462156
:1013500001EE101AB8EE411A31EE001AC0EE811AF1
:10136000BCEEE11A80ED001A1168C1F3064101EEEE
:10137000101AB8EE411A31EE001AC0EE811ABCEE16
:10138000E11A80ED011A1168C1F3066101EE101A2D
:10139000B8EE411A31EE000A80EE801ABCEEC10AA6
:1013A00080ED020A30BD04E001EE901ADFED092A5B
:1013B000BAE70021016041608160F3E728440258E8
:1013C00000000039384402580024744A0090D003C9
:1013D0000024744C0024F44A494930B5484C0B1D94
:1013E0000A681C3409681D68246802F0030305F4C8
:1013F0008072C1F30551C4F3CC04002914FB02F23E
:1014000000EE102AF8EE400A75D03F4A9FED3D1AD3
:10141000B7EE000A6BB1DFED3D1A012B01D0022BB4
:1014200064D002EE101A1168F8EE422A81EEA22A68
:1014300021E0334C283C23689B0612D5344B2468AA
:1014400001EE901A1168C4F3C104F8EE612AE3407A
:1014500001EE903AC1F30801F8EE611A81EEA22A7A
:101460000BE001EE901ADFED2B2A00BFF8EE611AB7
:10147000116882EEA12AC1F3080101EE901A1168E9
:10148000F8EE611A40EE811A71EE800A62EE200ACF
:10149000C1F3462101EE101AB8EE411A31EE001ADE
:1014A000C0EE811ABCEEE11A80ED001A1168C1F39A
:1014B000064101EE101AB8EE411A31EE001AC0EEE4
:1014C000811ABCEEE11A80ED011A1168C1F30661C0
:1014D00001EE101AB8EE411A31EE000A80EE801AC1
:1014E000BCEEC10A80ED020A30BD04E001EE901AA4
:1014F000DFED092ABAE70021016041608160F3E76E
:101500002844025800000039404402580024744A1C
:101510000090D0030024744C0024F44A2DE9FC5FB1
:10152000044650F8241B002500902E460801FE4F6B
:10153000DFF8F8931DD5606E50B1B0F5801F0CD068
:10154000B0F5001F0ED0B0F5401F1DD001250FE0F3
:10155000386840F40030386016E00221201D02F0A7
:1015600035FE03E00098022102F0C0FE05000BD01A
:101570002E462088C00523D5606D05281ED2DFE8E1
:1015800000F00C11161B1B00626ED9F8001021F43C
:1015900040111143C9F80010EBE7386840F40030FF
:1015A000386009E00021201D02F010FE03E00098E1
:1015B000002102F09BFE05466DB100E001252E469C
:1015C0002088800528D5A06D80281ED00CDC90B125
:1015D00040280ED114E0626DD9F8001021F0070107
:1015E0001143C9F80010EBE7C02813D0B0F5807F95
:1015F00010D001250FE0386840F40030386009E071
:101600000021201D02F0E2FD03E00098002102F01D
:101610006DFE054695B12E462088DFF81083400503
:1016200008F108082CD5D4F8A400B0F5800F20D01C
:101630000DDCA0B1B0F5001F0FD115E0A26DD9F8F7
:10164000001021F4E0711143C9F80010E4E7B0F58F
:10165000C00F13D0B0F5000F10D001250FE038688F
:1016600040F40030386009E00021201D02F0AEFD9A
:1016700003E00098002102F039FE054675B12E46C0
:10168000208800052DD5D4F8A800B0F1007F21D026
:101690000EDCA8B1B0F1807F10D116E0D4F8A42000
:1016A000D8F8001021F460011143C8F80010E7E7F2
:1016B000B0F1407F13D0B0F1806F10D001250FE062
:1016C000386840F40030386009E00021201D02F045
:1016D0007DFD03E00098002102F008FE05466DB193
:1016E0002E46206880011FD5A06CD8B110280FD0DD
:1016F000202812D0302815D0012514E0D4F8A820D5
:10170000D8F8001021F0E0611143C8F80010E8E7B4
:10171000386840F40030386004E00221201D02F0F7
:1017200055FD05466DB12E462088C0042BD5E06DD1
:10173000B0F5005F20D00DDCA0B1B0F5805F0FD117
:1017400015E07A48A26C001F016821F030011143B6
:101750000160E9E7B0F5405F13D0B0F5804F10D0DD
:1017600001250FE0386840F40030386009E00021BE
:10177000201D02F02BFD03E00098002102F0B6FDD1
:10178000054685B12E462088800429D5206EB0F507
:10179000403F23D010DC08B3B0F5803F14D0B0F543
:1017A000003F0FD115E0E26DD9F8001021F4E041BF
:1017B0001143C9F80010E6E7B0F5802F0ED0B0F560
:1017C000A02F0BD001250AE00121201D02F0FEFC14
:1017D00003E00098012102F089FD05468DB12E46F7
:1017E000208840042AD5D4F8AC00B0F1405F23D063
:1017F00010DC08B3B0F1805F14D0B0F1005F0FD1FE
:1018000015E0226ED9F8001021F4E0211143C9F847
:101810000010E5E7B0F1804F0ED0B0F1A04F0BD033
:1018200001250AE00121201D02F0D0FC03E0009810
:10183000012102F05BFD05466DB12E4620880004B3
:101840001FD5E06ED8B1B0F1805F0ED0B0F1005F6F
:1018500010D0012514E0D4F8AC20D8F8001021F005
:10186000E0411143C8F80010E8E7386840F4003060
:10187000386004E00121201D02F0A8FC05466DB18E
:101880002E462068C0011ED5606CD0B101280ED054
:10189000022811D0032814D0012513E0E26ED9F8F4
:1018A000001021F040511143C9F80010E9E73868F1
:1018B00040F40030386004E00221201D02F086FC74
:1018C000054685B12E462068DFF85CB04002ABF1DA
:1018D0001C0B57D51648016841F480710160FFF771
:1018E0005DF982460EE01148626C001F016821F02C
:1018F000030111430160E6E7FFF750F9A0EB0A008E
:1019000064283DD80A480068C005F5D57DBBDFF8DE
:101910001CA0B4F8B0100AF1200ADAF8000001F4B3
:10192000407100F4407005E02C44025850440258C5
:1019300000480258884211D0DAF80010DAF8002086
:1019400021F4407142F48032CAF80020DAF8002015
:1019500022F48032CAF80020CAF80010D4F8B0008F
:10196000B0F5807F21D1FFF719F9019019E008E067
:10197000FFF714F90199411A41F28830814210D9D8
:1019800003252E462078DFF82CA4C0073DD0A06F99
:10199000182838D026DC80B3082829D0102825D173
:1019A0002CE0DAF800008007E2D5D4F8B010C1F3DB
:1019B0000120032858460DD0016821F47C510160B4
:1019C000B4F8B020DAF80010C2F30B021143CAF8E1
:1019D0000010D7E7F84A036802EA111223F47C5199
:1019E0001143ECE720280ED028280CD001250BE06D
:1019F0000121201D02F0EAFB04E004E0009801212F
:101A000002F074FC05465DB12E46207880071ED595
:101A1000606F062819D2DFE800F0160C11161616B2
:101A2000A26FDAF8001021F038011143CAF8001053
:101A3000EBE70121201D02F0C9FB03E00098012122
:101A400002F054FC054675B100E001252E462078D1
:101A500040071FD5D4F89000062819D2DFE800F01F
:101A6000160C11161616626FDAF8001021F0070135
:101A70001143CAF80010EAE70121201D02F0A6FB7D
:101A800003E00098012102F031FC05469DB100E021
:101A900001252E46207880062BD5D4F88C00B0F195
:101AA000405F24D011DC10B3B0F1805F15D0B0F1ED
:101AB000005F10D116E0D4F89020D8F8001021F083
:101AC00007011143C8F80010E4E7B0F1804F0ED0D1
:101AD000B0F1A04F0BD001250AE00021201D02F03B
:101AE00075FB03E00098022102F000FC05468DB171
:101AF0002E46207840062BD5D4F89800B0F5406FDC
:101B000024D011DC10B3B0F5806F15D0B0F5006FA4
:101B100010D116E0D4F88C20DAF8001021F0E04162
:101B20001143CAF80010E4E7B0F5805F0ED0B0F5BD
:101B3000A05F0BD001250AE00021201D02F046FB2A
:101B400003E00098022102F0D1FB05468DB12E463C
:101B5000207800062BD5D4F89C00B0F5C04F24D0D7
:101B600011DC10B3B0F5005F15D0B0F5804F10D187
:101B700016E0D4F89820D8F8001021F4E051114371
:101B8000C8F80010E4E7B0F5004F0ED0B0F5204FD4
:101B90000BD001250AE00021201D02F017FB03E015
:101BA0000098022102F0A2FB054665B32E4620787C
:101BB00000070BD5D4F88010B1F5805F2DD0DAF88E
:101BC000002022F440520A43CAF800202078C006C0
:101BD0000BD5D4F89410B1F5807F26D0D8F800202A
:101BE00022F440720A43C8F800202068000330D570
:101BF000D4F8A00008B3B0F5803F23D0B0F5003F83
:101C000025D0012524E0D4F89C20D8F8001021F438
:101C100060411143C8F80010C9E70098022102F0A2
:101C200065FB0028D2D00126D0E70098022102F0FF
:101C30005DFB0028D9D00126D7E70021201D02F046
:101C4000C5FA03E00098022102F050FB054685B179
:101C50002E462068400322D5D4F88400B0F5801FBA
:101C600011D0B0F5001F13D0B0F5401F15D00125DD
:101C700014E0D4F8A020D8F8001021F4403111432A
:101C8000C8F80010E5E7386840F40030386004E038
:101C90000098012102F02AFB054655B12E46206826
:101CA000C0031CD5E06C70B1B0F5803F10D00125A9
:101CB00014E0D4F88420DAF8001021F44011114324
:101CC000CAF80010EBE7386840F40030386004E0F0
:101CD0000221201D02F07AFA0546CDB12E46206879
:101CE000800005D50098022102F000FB00B101261A
:101CF000206880031BD5E06FB8B1B0F5807F10D0AD
:101D0000B0F5007F11D0B0F5407F0ED001250DE079
:101D10002848E26C0838016821F4803111430160E1
:101D2000DDE7386840F400303860EDB32E462068B7
:101D3000C00207D5226FD9F8001021F000411143ED
:101D4000C9F800102068C00008D5D4F8B420DBF82A
:101D5000001021F480411143CBF80010206880026C
:101D600007D5A26ED9F8001021F080711143C9F88F
:101D70000010206840000CD5DBF8001021F4004171
:101D8000CBF80010DBF80010D4F8B8201143CBF8E2
:101D900000102068002809DA0648226D083801681A
:101DA00021F04051114300E008E001607EB10120C4
:101DB000BDE8FC9F54440258CFFFFF00E26FDAF801
:101DC000001021F440711143CAF80010AFE7002061
:101DD000EEE700002DE9F05F04000F467ED0DFF84B
:101DE0002482D8F8000000F00F00B8420CD2D8F8D6
:101DF000001021F00F013943C8F80010D8F8000096
:101E000000F00F00B84269D120787F4D40070AD515
:101E10002069296801F07001884204D9296821F0FD
:101E20007001014329602078774E361D00070AD5DE
:101E30006069316801F07001884204D9316821F08D
:101E40007001014331602078C0060AD5A06931686D
:101E500001F4E061884204D9316821F4E061014372
:101E600031602078DFF8A0B180060BF1080B0CD5AB
:101E7000E1695846DBF8002002F07002914204D973
:101E8000026822F070020A430260207880070AD5B7
:101E9000E068296801F00F01884204D9296821F01F
:101EA0000F01014329602078C0073ED05649A2683F
:101EB0002868183920F47060104328606068022890
:101EC00018D0032819D00968012819D0490700291A
:101ED0004ADADFF834A1AAF1080A00E044E0DAF8AF
:101EE000002022F007020243CAF80020FEF756FE47
:101EF000814612E009688903E9E709688901E6E794
:101F0000C905E4E7FEF74AFEA0EB090141F288307B
:101F1000814202D90320BDE8F09F6168DAF8000031
:101F200000F03800B0EBC10FECD1207880070AD563
:101F3000E068296801F00F01884204D2296821F085
:101F40000F0101432960D8F80010404601F00F014D
:101F5000B9420BD9016821F00F01394301600068D3
:101F600000F00F00B84201D00120D4E720784007EC
:101F70000AD52069296801F07001884204D22968D5
:101F800021F0700101432960207800070AD56069BB
:101F9000316801F07001884204D2316821F070018B
:101FA000014331602078C0060AD5A069316801F488
:101FB000E061884204D2316821F4E061014331607C
:101FC000207880060CD5E1695846DBF8002002F045
:101FD0007002914204D2026822F070020A43026049
:101FE00000F082F82968094AC1F30321515C01F02D
:101FF0001F01C8400649086006480068BDE8F05F58
:10200000FEF798BF0020005218440258BC6F000829
:10201000680000206000002070B5144C3F22026070
:10202000124A24680832131D114D04F0070444605D
:1020300016681C1D06F470668660166806F00F06AA
:10204000C660126802F0700202611A6802F0700243
:1020500042611A6802F4E0628261226802F0700252
:10206000C261286800F00F00086070BD104402587B
:102070000020005210B5FFF7E5F8064A064912683D
:10208000064B02F00F029A5C02F01F02D04008607B
:1020900010BD0000184402586C000020BC6F0008FE
:1020A00010B5FFF7E7FF05490968054AC1F30211BA
:1020B000515C01F01F01C84010BD00001C440258D3
:1020C000BC6F000810B5FFF7D5FF05490968054A40
:1020D000C1F30221515C01F01F01C84010BD000096
:1020E0001C440258BC6F0008454970B54548096852
:1020F000434B103B11F0380208D00111082A03D0DD
:10210000102A0BD0182A0BD0084670BD1968890612
:10211000FBD51968C1F3C101C84070BD3A4870BD14
:102120003749374D18310C1D24350A68096826686F
:102130002D6802F0030406F00102C1F30511C5F396
:10214000CC0515FB02F200EE102AB8EE400AE9B306
:102150002F4ADFED2E0AB7EE001A6CB1DFED2D1A13
:10216000012C01D0022C43D002EE101A1068F8EEB8
:10217000422A81EEA22A1EE01C68A40611D51B6823
:1021800001EE901A1168C3F3C103F8EE612AD8403A
:1021900001EE900AC1F30800F8EE611A81EEA22A5E
:1021A0000BE001EE901ADFED1C2A00BFF8EE611A79
:1021B000106882EEA12AC0F3080001EE900AF8EE42
:1021C000611A40EE201A31EE810A00E015E022EE9D
:1021D000000A1068C0F34620401C00EE900AF8EE9A
:1021E000600A80EE201ABCEEC10A10EE100A70BD23
:1021F00001EE901ADFED092AD8E7002070BD00003B
:10220000104402580090D00300127A0000000039F8
:10221000304402580024744A0024744C0024F44AC8
:102220002DE9F05F04007DD0FF4F2078FE4D183778
:10223000DFF8F493103DC00748D0D9F800003968A2
:1022400000F03800102815D0182803D101F0030041
:1022500002280FD06068B0F5803F12D010B1B0F501
:10226000A02F18D0286820F480302860286820F437
:10227000802009E02868800328D560680028D2D033
:1022800024E0286840F480302860606888B1FEF758
:1022900085FC064609E0286840F480202860F0E7C5
:1022A000FEF77CFC801B64286FD828688003F7D574
:1022B0000CE0FEF773FC064605E000BFFEF76EFC7F
:1022C000801B6428F0D828688003F7D4207841F276
:1022D0000308D54E0C3E800761D5D9F80000396857
:1022E00010F038000ED0182801D188070AD0E06815
:1022F00080B3296821F0190101432960FEF74EFCE3
:1023000082462FE02868400702D5E06800288AD07E
:10231000E168286820F0190008432860FEF73EFCB9
:10232000824607E0D1E000BFFEF738FCA0EB0A00D0
:102330000228B9D828684007F6D500BFFEF728FC68
:10234000404513D82069316821F47C3141EA0030DE
:10235000306024E011E000BFFEF720FCA0EB0A0093
:102360000228A1D828684007F6D5E7E7207C316825
:1023700021F0FE4141EA0060EAE7286820F0010010
:102380002860FEF70BFC824606E0FFE0FEF706FC45
:10239000A0EB0A00022887D828684007F6D42078E6
:1023A000C00657D5D9F80000DFF87CB2396800F0D4
:1023B0003800ABF1040B082810D0182803D101F025
:1023C000030001280AD0E0690028286832D040F0D4
:1023D00080002860FEF7E2FB824623E02868C00503
:1023E00023D5E069802870D11FE000BF94F8200059
:1023F000316821F0F84141EA806030602AE000BF96
:1024000094F82010DBF8002022F07C5242EA0161AF
:10241000CBF800101EE000BFFEF7C0FBA0EB0A00E7
:10242000022886D82868C005F6D5FEF7B1FB4045DE
:10243000E6D8DBE720F080002860FEF7AFFB064619
:1024400005E000BFFEF7AAFB801B022889D8286898
:10245000C005F7D42078000729D573486169643036
:1024600000298046016811D041F001010160FEF7AA
:1024700095FB064605E000BFFEF790FB801B022897
:1024800089D8D8F800008007F6D510E021F00101C6
:102490000160FEF783FB064605E000BFFEF77EFB0A
:1024A000801B022872D8D8F800008007F6D4207864
:1024B000800623D5A0690028286810D040F48050F9
:1024C0002860FEF76BFB064605E0E6E0FEF766FBDC
:1024D000801B02285AD828688004F7D50EE020F423
:1024E00080502860FEF75AFB064604E0FEF756FBD4
:1024F000801B02284AD828688004F7D42078400737
:102500004FD5DFF82881D8F8001041F48071C8F861
:102510000010FEF743FB064605E000BFFEF73EFB5A
:10252000801B642832D8D8F80000C005F6D53E4E8E
:10253000A068603601280AD008B1052813D0306899
:1025400020F001003060306820F0040002E03068C4
:1025500040F001003060A06841F2883A90B1FEF787
:102560001DFB80460AE0306840F004003060EEE772
:10257000FEF714FBA0EB0801514507D8306880072F
:10258000F6D50EE0FEF70AFB804607E084E000BFC8
:10259000FEF704FBA0EB080151457DD830688007A9
:1025A000F6D4606AF0B3D9F80010C1F3C201032970
:1025B00073D00228286820F08070286003D0FEF7CE
:1025C000EDFA044680E0FEF7E9FA064605E000BFB2
:1025D000FEF7E4FA801B022873D828688001F7D43C
:1025E000E26A40F2F331386854F8283F884340EA01
:1025F000021018433860217B4FF4FE0C22894FF003
:10260000FE47208A4902084B521E267DA1F5007123
:1026100089B2401EC2F3080220331143761E0CEA31
:10262000004005E053E00000104402580048025802
:10263000014307EA0662181F114319601A1D016859
:1026400021F00101016011684FF6F876236AB14369
:1026500041EAC30111600168A26921F00C01114334
:1026600001600168E26921F0020111430160016823
:1026700041F480310160016841F40031016001687A
:1026800041F480210160016841F001010160286886
:1026900040F08070286001E013E01AE0FEF77EFA57
:1026A000044604E0FEF77AFA001B022809D82868DD
:1026B0008001F7D50BE000BFFEF770FA001B02287F
:1026C00002D90320BDE8F09F28688001F4D40020DF
:1026D000F8E70120F6E700002DE9F047040029D0D3
:1026E0004A4A4FF000092068494B4A4D9042C4F8CD
:1026F000289006D0984204D0A84202D0E1680F2961
:1027000018D8E1684FF0010AE76B0831C9080AEBF5
:1027100057167143904205D0984203D0A84201D089
:10272000082907D8904203D0984201D0A84204D18A
:10273000102902D90120BDE8F08794F8810020B962
:10274000204684F8809000F067F8022084F8810029
:102750002068016821F001010160A069B0F1806F7B
:102760000AD16068B0F5800F06D1A06B20B920684F
:10277000016841F480510160A56AE0692368E16B5A
:102780002843E268084310439860D4E90D02D4E975
:1027900005C1636A25691843D4F820800A43266876
:1027A00010432843A56DD4E90172D4E9123140EAFF
:1027B0000C0040EA080038430843104318432843FC
:1027C000F060606868B92068816821F4C05141F404
:1027D000006181602068816821F4C06141F48061FA
:1027E00081602068016D21F001010165606840028F
:1027F00006D52068626DC16821F000411143C160B7
:10280000C4F8849084F881A0002094E7003001404F
:1028100000380040003C004070B586B004461421EA
:102820006846FDF7FFFD214A0023214E022025685E
:10283000103A1E490524B54218D10D6845F40055DB
:102840000D60096801F400510591116841F0100113
:1028500011601168CDE9023001F010010591642189
:102860000494CDE90010134869461BE0124EB542AE
:102870001AD10D6845F480150D60096801F48011C6
:102880000591116841F0200111601168CDE9023015
:1028900001F0200105914FF460710494CDE900101E
:1028A00006486946FEF764F806B070BDF044025869
:1028B000003401400010025800500140001402583A
:1028C0002DE9F84F0F46416804461D460020164684
:1028D000B1F5800F4FF0040B009001D1A06888B1D2
:1028E00094F88000012818D04FF0010984F88090F6
:1028F000FEF754F994F881108246002001290ED089
:10290000022125E084F881B02046009313463A4620
:10291000114600F0FFF9BDE8F88F0220FBE7B7B1E0
:10292000AEB1A26880466766A4F8686084F881B09A
:10293000C4F88400A4F86A60E065A4F86000A4F814
:102940006200B2F5C02F2067606705D009E0012161
:1029500084F880000846DEE72068016821F4006101
:102960000160206841686FF30F01314341602068C6
:10297000016841F0010101606068B0F5800F04D189
:102980002068016841F400710160E0680F282ED9C9
:1029900048F20806B4F86A00002858D02068416957
:1029A00031420BD0006B616E0860606E001D606686
:1029B000B4F86A00401EA4F86A00EBE7FEF7EEF8F0
:1029C000A0EB0A00A84202D3681CE3D001E0002D6E
:1029D000E0D1204601F07AFDD4F8842084F880808C
:1029E00042F48071C4F8841084F8819078E007285C
:1029F00029D867E02068416911F4604F18D0416917
:102A0000090409D5006B616E0860606E001D606688
:102A1000B4F86A00801E08E0008E616E0880606E67
:102A2000801C6066B4F86A00401EA4F86A000AE0E0
:102A3000FEF7B4F8A0EB0A00A84202D3681C02D04B
:102A4000C7E7002DC5D0B4F86A000028D2D13DE018
:102A50002068416911F4604F29D04169090409D502
:102A6000006B616E0860606E001D6066B4F86A00FD
:102A7000001F19E0416901F4C041B1F5005F09D9B7
:102A8000008E616E0880606E801C6066B4F86A001B
:102A9000801E09E090F83000616E0870606E401C86
:102AA0006066B4F86A00401EA4F86A000AE0FEF707
:102AB00075F8A0EB0A00A84202D3681C02D088E790
:102AC000002D86D0B4F86A000028C1D1204601F05C
:102AD000FDFC84F88190D4F8841084F8808009B1DA
:102AE000012018E7009816E72DE9F84F8A4690F87C
:102AF00080101D461746012904464FF0000B0DD0EB
:102B00004FF0010884F88080FEF748F8814694F879
:102B100081000026012804D002201EE00220BDE82A
:102B2000F88FBAF1000F17D0B7B1A1680320C4F82D
:102B30005CA0A4F8607084F88100C4F88460A4F8F4
:102B400062706666A4F86860A4F86A60B1F5C02F88
:102B50006667266704D008E0012084F88060DEE71D
:102B60002068016841F400610160206841686FF3EA
:102B70000F01394341602068016841F001010160A3
:102B80006068B0F5800F04D12068016841F40071DD
:102B90000160E0680F281AD82CE020684169890795
:102BA0000BD5E16D09680162E06D001DE065B4F8C8
:102BB0006200401EA4F8620009E0FDF7EFFFA0EB01
:102BC0000900A84202D3681C01D005E025B1B4F881
:102BD00062000028E1D181E0204601F077FCD4F8C2
:102BE000841084F8806041F48071C4F8841084F803
:102BF00081808BE007282BD86CE020684169890729
:102C00001BD5B4F8621001290BD9E16B49B1E16D14
:102C100009680162E06D001DE065B4F86200801E85
:102C200008E0E16D09880184E06D801CE065B4F87E
:102C30006200401EA4F862000AE0FDF7AFFFA0EBBF
:102C40000900A84202D3681C02D0C5E7002DC3D0FA
:102C5000B4F862000028D0D140E0206841698907BB
:102C60002DD5B4F8621003290CD9E16B402909D99C
:102C7000E16D09680162E06D001DE065B4F8620075
:102C8000001F19E0B4F8621001290BD9E16B49B1BA
:102C9000E16D09880184E06D801CE065B4F8620094
:102CA000801E09E0E16D097880F82010E06D401C7D
:102CB000E065B4F86200401EA4F862000AE0FDF787
:102CC0006DFFA0EB0900A84202D3681C02D083E785
:102CD000002D81D0B4F862000028BED100224B46FE
:102CE00008212046009501F04FFC28B1D4F884005B
:102CF00040F02000C4F88400204601F0E7FB84F88F
:102D00008180D4F8840084F8806008B1012006E74F
:102D1000584604E72DE9FF4F83B090F88010044631
:102D20001D4600209346109F0129019014D04FF0BA
:102D3000010A84F880A0FDF731FF804694F88100F5
:102D40006368002101282E464FF480020CD0934284
:102D500008D1A36833B903E0022007B0BDE8F08FC3
:102D6000042801D0022037E0049898B3BBF1000F8B
:102D700031D07DB394F88100042802D0052084F876
:102D8000810089460846C4F88410C4F864B0A4F8E9
:102D90006A50A4F868500499E165A4F86250A4F858
:102DA000605020676067206841686FF30F01294316
:102DB00041602068016841F0010101606068904253
:102DC00004D12068016841F400710160E0680F28B7
:102DD0002BD846E0FFE7012084F88010BDE720688B
:102DE000416989070DD565B1E16D09680162E06D42
:102DF000001DE065B4F86200401EA4F86200B4F85B
:102E0000625048F208022068416911420DD066B153
:102E1000006B616E0860606E001D6066B4F86A0049
:102E2000401EA4F86A00B4F86A6055EA0600D6D1DC
:102E3000FDF7B4FEA0EB0800B84202D3781C02D123
:102E4000DDE0002F5DD1204601F040FBD4F8842066
:102E500084F8809042F48070C4F8840084F881A0E3
:102E6000E5E007284AD8C7E02068416989071BD5F3
:102E7000D5B1012D0BD9E16B49B1E16D0968016252
:102E8000E06D001DE065B4F86200801E08E0E16DB1
:102E900009880184E06D801CE065B4F86200401E82
:102EA000A4F86200B4F862502068416911F4604FE0
:102EB0001AD0CEB14169090409D5006B616E086072
:102EC000606E001D6066B4F86A00801E08E0008E27
:102ED000616E0880606E801C6066B4F86A00401EF7
:102EE000A4F86A00B4F86A60FDF758FEA0EB080089
:102EF000B84202D3781C01D004E01FB155EA0600A5
:102F0000B2D17CE0204601F0E1FAD4F8842084F8C4
:102F1000809042F48071C4F8841084F881A086E027
:102F20002068416989072BD555B3032D0CD9E16B76
:102F300040290BD9E16D09680162E06D001DE06573
:102F4000B4F86200001F17E0012D0BD9E16B49B105
:102F5000E16D09880184E06D801CE065B4F86200D1
:102F6000801E09E0E16D097880F82010E06D401CBA
:102F7000E065B4F86200401EA4F86200B4F8625044
:102F80002068416911F4604F2BD056B341690904A0
:102F900009D5006B616E0860606E001D6066B4F854
:102FA0006A00001F19E0416901F4C041B1F5005FFA
:102FB00009D9008E616E0880606E801C6066B4F86E
:102FC0006A00801E09E090F83000616E0870606E43
:102FD000401C6066B4F86A00401EA4F86A00B4F8A9
:102FE0006A60FDF7DBFDA0EB0800B84202D3781C55
:102FF00002D028E7002FFCD055EA060090D100222D
:10300000434608212046009701F0BEFA28B1D4F8C3
:10301000840040F02000C4F88400204601F056FAF5
:1030200084F881A0D4F8840084F8809008B101204D
:1030300093E6019891E670477047704770B590F835
:103040003C20012A24D0134C012580F83C50022258
:1030500080F83D2002685368A242966802D00E4C68
:10306000A24203D14C6823F4700323430C6823F07D
:10307000700389681C435460002326F080060268B0
:103080003143916080F83D5080F83C30184670BD67
:10309000022070BD000001400004014010B5040092
:1030A00003D094F83D0010B107E0012010BD0020CE
:1030B00084F83C00204600F00DF8022084F83D0022
:1030C0002068211D01F096FB012084F83D000020BE
:1030D00010BD000008B500680649884208D10648BE
:1030E000016841F020010160006800F020000090BC
:1030F00008BD000000140040E84402580A4B0221B9
:1031000080F83D1001688A681A40062A06D0B2F598
:10311000803F03D00A6842F001020A60012180F872
:103120003D10002070470000070001000168094AB7
:10313000CB6843F00103CB60016888681040062823
:1031400006D0B0F5803F03D0086840F00100086069
:103150000020704707000100022141F2111380F89E
:103160003D1001680A6A1A4207D10A6A9B101A4286
:1031700003D10A6822F001020A60012180F83D10A3
:1031800000207047704770B504460068002501694B
:10319000C943890715D4C168C943890711D4EA1EF8
:1031A000026101212177206880698007204602D0D2
:1031B000FFF7E8FF04E000F0A7F8204600F0A5F8CC
:1031C000257720680169C943490717D4C168C943F5
:1031D000490713D402216FF00402026121772068AD
:1031E000806910F4407F204602D0FFF7CBFF04E057
:1031F00000F08AF8204600F088F8257720680169F9
:10320000C943090716D4C168C943090712D4042168
:103210006FF00802026121772068C06980072046AC
:1032200002D0FFF7AFFF04E000F06EF8204600F098
:103230006CF8257720680169C943C90617D4C168AD
:10324000C943C90613D408216FF010020261217727
:103250002068C06910F4407F204602D0FFF792FF3B
:1032600004E000F051F8204600F04FF82577206880
:103270000169C943C90708D1C168C943C90704D155
:10328000891E0161204600F041F820680169C943A8
:10329000090609D4C168C943090605D46FF0800145
:1032A00001612046FFF7C8FE20680169C943C905CE
:1032B00009D4C168C943090605D46FF4807101615E
:1032C0002046FFF7B8FE20680169C943490609D4C2
:1032D000C168C943490605D46FF040010161204629
:1032E00000F01EF820680169C94389060BD4C16843
:1032F000C943890607D46FF0200101612046BDE86B
:103300007040FFF79ABE70BD704770470068034970
:10331000884201D1FDF7DABD70470000000001408E
:10332000704730B590F87C10012918D0012280F840
:103330007C202421C0F880100022202450F8601B3B
:103340000B680D6823F0005325F001050D60426005
:1033500050F8601C0B6004620277104630BD0220FA
:1033600030BD70B5044690F87C0001281DD00122C4
:1033700084F87C202420C4F8800020680568026856
:1033800022F0010202602068826822F060620A4333
:103390008260204601F0D6FA2268202100201560C4
:1033A000C4F8801084F87C0070BD022070BD70B538
:1033B000044690F87C0001281DD0012284F87C206E
:1033C0002420C4F8800020680568026822F0010209
:1033D00002602068826822F060420A4382602046D0
:1033E00001F0B0FA2268202100201560C4F8801096
:1033F00084F87C0070BD022070BD10B5040003D0BD
:10340000D4F8800010B107E0012010BD002084F83E
:103410007C00204600F026F82420C4F880002068B4
:10342000016821F001010160204601F051FB0128F3
:10343000EBD0A06A10B1204601F0B6FA20684168CE
:1034400021F4904141602068816821F02A01816067
:103450002068016841F0010101602046BDE810408C
:1034600001F006BB10B586B0044614216846FCF78F
:10347000D9FF13492068884220D11248016841F4DD
:1034800080210160006800F4802005900D48083814
:10349000016841F00801016000680723022200F082
:1034A0000800059000204FF4407100916946CDE975
:1034B0000120CDE903030448FDF75AFA06B010BD18
:1034C00000480040E8440258000C0258FEE701683A
:1034D0008A69D243920701D400228A620068816916
:1034E000C943C90703D0816941F001018161704777
:1034F0002DE9F0410446006890460E468069C043BD
:10350000C00635D40025202720688069C043800686
:1035100016D5701CF8D0FDF741FBA0EB0800B042B7
:1035200001D8002EF0D1606C84F8405040F02000AB
:10353000606484F8417084F842500120BDE8F08155
:1035400021681020C8612068C7612046FFF7BFFFCF
:103550002068084942680A404260606C40F00400FC
:10356000606484F8417084F8425084F84050E4E785
:103570000020E3E700E800FE2DE9F8430446164882
:1035800017461E46DAB20090C3022046DDE90898CD
:1035900000F024F842464946204600F089F8B8B9C0
:1035A000012EFDB208D02068390A816242464946A0
:1035B000204600F07DF858B92068856200228021FD
:1035C0004B462046CDF8008000F01EF8002800D0C1
:1035D0000120BDE8F88300000020008070B500687D
:1035E000C1F30901074E41EA0241049C4FF4806592
:1035F0004268194305EA54553543AA4321430A4317
:10360000426070BDFF63FF032DE9F0411D46174680
:103610000E460446DDF8188008E0681C06D0FDF769
:10362000BDFAA0EB0800A8420BD855B1206880690C
:1036300036EA000013D00020B842EED00020BDE8EA
:10364000F081626C002084F84000202142F02002CA
:10365000626484F8411084F842000120EFE7012001
:10366000EAE770B516460D4604460DE03246294697
:103670002046FFF73DFF08B1012070BDFDF78EFA2F
:10368000801BA84207D835B120688069C0438006F6
:10369000ECD4002070BD626C002084F84000202132
:1036A00042F02002626484F8411084F84200E3E7AB
:1036B00070B516460D4604460FE0324629462046B0
:1036C000FFF716FF08B1012070BD681C05D0FDF79B
:1036D00065FA801BA84207D835B120688069C043CD
:1036E0008007EAD4002070BD626C002084F840009E
:1036F000202142F02002626484F8411084F84200E4
:10370000E1E7000070B50F482021FCF78BFE0E4D5D
:1037100002260C4C2021D5F816002060A888A08233
:1037200035F8020FE08204F12000A672FCF77AFE61
:10373000A8692062E888A086A888E08684F82A60C4
:1037400070BD0000EC200020020000202DE9FC4F9D
:103750003B49052000224FF00A0E01F11E0A4FF0EE
:103760002E0B01F13C0948701AF80200A0F10A037F
:103770005A2B1AD2B0FBFEF8B0FBFEF74E7830257C
:10378000731CDCB2631CC8F1000808EB880805EB69
:103790004808DDB26B1C3037404409F8067009F860
:1037A000040009F805B04B703DE0642831D364266D
:1037B0004B78B0FBF6F76FF018084FF0300CB0FB09
:1037C000F6F65C1CE4B20194641CE4B20094641C40
:1037D00007FB08F7B0FBFEF8303600EB870797FBD6
:1037E000FEF509F80360C8F1000707EB87073035DD
:1037F0000CEB470CE7B2019C844407F1010809F87F
:103800000450009C09F804C009F807B081F8018051
:1038100009E04C783030661C09F80400F0B2441C12
:1038200009F800B04C70521CD2B2042A9CD34A78DA
:10383000002109EB020000F8011CBDE8FC8F00002C
:103840000200002010B590B0114914226846FCF720
:10385000D0FD0021684602F0F8F90E4C14220C4904
:103860001431206005A8FCF7C4FD002105A802F072
:10387000ECF90749142220600AA82831FCF7B9FDA9
:1038800000210AA802F0E1F9206010B010BD00008C
:10389000806F0008580000202DE9F04F87B01421F8
:1038A0006846FCF7BFFD7B48016841F010010160EC
:1038B000016801F010010591016841F00401016007
:1038C000016801F004010591016841F020010160E7
:1038D000016801F020010591016841F0800101605B
:1038E000016801F080010591016841F0010101606A
:1038F000016801F001010591016841F002010160D8
:10390000016801F002010591016841F04001016088
:10391000016801F040010591016841F00801016072
:10392000006840F608650022294600F0080005906E
:103930005948FDF727F9594800224021FDF722F99F
:10394000DFF85CB144F28159002249465846FDF740
:1039500019F9544800224921FDF714F94FF4114A8E
:10396000514800225146FDF70DF950480022FF2131
:10397000FDF708F900244E484FF40058CDF80080B8
:103980006946CDE901044448FCF7F2FF322000907B
:103990000B27414802266946CDE90164CDE903477A
:1039A000FCF7E6FF00950125CDE901543A48694648
:1039B0000394FCF7DDFF86200090CDE901643748D1
:1039C0006946CDE90347FCF7D3FF40200090CDE9DD
:1039D0000154324869460394FCF7CAFFCDF80090C1
:1039E0006946CDE9015458460394FCF7C1FF4920CC
:1039F0000090CDE901542B4869460394FCF7B8FFC9
:103A0000CDF800A06946CDE9015427480394FCF79E
:103A1000AFFFA8036946CDE9000423480294FCF7F0
:103A2000A7FFE8026946CDE9000458460294FCF776
:103A30009FFFCDF800806946CDE90164CDE90347D9
:103A40005846FCF795FF80206946CDE900041548EB
:103A50000294FCF78DFF28026946CDE900040E4868
:103A60000294FCF785FFFF200090CDE901540F4838
:103A700069460394FCF77CFF4FF420500090CDE999
:103A8000016408486946CDE90347FCF771FF07B0B8
:103A9000BDE8F08FE04402580008025800000258C8
:103AA000000402580018025800100258000C025876
:103AB000000011111348002110B5114C0123124AC6
:103AC0000460C0E90121C0E9033141618161C16144
:103AD0000162FDF7BFF808B1FCF737FF0948002184
:103AE000FDF762F808B1FCF730FF06480021FDF74A
:103AF00087F8002803D0BDE81040FCF726BF10BDB2
:103B0000005400406C210020B175703070B515482C
:103B100007224FF48005124E00212C01C0E9021249
:103B200001614FF04053C0E90514C0E9073141621B
:103B300022018162C162C0E90D21C1630164416457
:103B40008164C164016541658165C0E90065FEF776
:103B5000C3FD002803D0BDE87040FCF7F6BE70BD81
:103B600000340140B821002070B5154807224FF4F9
:103B70008005124E00212C01C0E9021201614FF0B4
:103B80004053C0E90514C0E9073141622201816256
:103B9000C162C0E90D21C163016441648164C164F3
:103BA000016541658165C0E90065FEF795FD002866
:103BB00003D0BDE87040FCF7C8BE70BD00500140A6
:103BC000402200203EB50F48002401210C4BEF227B
:103BD000009401940294C0E902418461C0E900327A
:103BE000FFF75CFA08B1FCF7B0FE0648694600949E
:103BF0000294FFF723FA002801D0FCF7A6FE3EBD91
:103C000000140040C82200201848002110B5164CAE
:103C10000C224FF4E1330460C0E90131C160C0E916
:103C200004128161C161016241628162FFF7E5FBBB
:103C300008B1FCF78AFE0D480021FFF7B8FB08B178
:103C4000FCF783FE09480021FFF78BFB08B1FCF766
:103C50007CFE0648FFF765FB002803D0BDE8104056
:103C6000FCF773BE10BD0000004800400823002090
:103C70000E48002170B502230B4D0122C0E903312B
:103C800083610924C0E90721C0E90912C0E90B21B9
:103C9000C0E90054FDF7EEF9002803D0BDE87040FC
:103CA000FCF753BE70BD00000000084094230020C4
:103CB000FEE770471FB50FA10522D1E90001CDE94C
:103CC0000201302002A900F061F8052269461020A7
:103CD00000F014F8002069460A5CA52A03D1401CB4
:103CE000C0B20528F8D3052802D0012004B010BDC9
:103CF0000020FBE7A5A5A5A5A5000000F7B50E4D82
:103D00004FF4806416460F46002221462846FCF7F1
:103D100039FF0A48FF2301226946FEF7E5FE0748FE
:103D2000FF2332463946FEF7CBFD012221462846C5
:103D3000FCF728FFFEBD00000004025840220020CE
:103D400031B5104D4FF480640022214684B02846DE
:103D5000FCF718FFFF2000900B48012302AA04A9DA
:103D6000FEF7D8FF0848FF23012201A9FEF7A8FDAE
:103D7000012221462846FCF705FF9DF8040005B006
:103D800030BD00000004025840220020F7B5114D5C
:103D90004FF4806482B0164600220F462146284622
:103DA000FCF7F0FEFF2000900B48012301AA02A9B6
:103DB000FEF7B0FF0848FF2332463946FEF794FE6F
:103DC000012221462846FCF7DDFE9DF8040005B0DF
:103DD000F0BD0000000402584022002033B5104D11
:103DE0004FF480640022214683B02846FCF7CAFEC7
:103DF000FF2000900B48012301AA03A9FEF78AFFC8
:103E00000848FF23012204A9FEF76EFE0122214685
:103E10002846FCF7B7FE9DF8040005B030BD000051
:103E2000000402584022002070B505460720FFF725
:103E300087FF044601462720FFF7D0FF60060AD51A
:103E4000192229466120FFF759FFFF21E220FFF7E1
:103E5000C5FF002070BD012070BD00001FB50FA17F
:103E60000522D1E90001CDE90201302002A900F0CC
:103E70003BF805226946102000F014F8002069463E
:103E80000A5CA52A03D1401CC0B20528F8D3052836
:103E900002D0012004B010BD0020FBE7A5A5A5A518
:103EA000A5000000F7B50E4D4FF4805416460F469E
:103EB000002221462846FCF765FE0A48FF2301221E
:103EC0006946FEF711FE0748FF2332463946FEF7E2
:103ED000F7FC012221462846FCF754FEFEBD0000F7
:103EE00000100258B8210020F7B5114D4FF480544E
:103EF00082B0164600220F4621462846FCF742FEB5
:103F0000FF2000900B48012301AA02A9FEF702FF3F
:103F10000848FF2332463946FEF7E6FD01222146D6
:103F20002846FCF72FFE9DF8040005B0F0BD000008
:103F300000100258B821002033B5104D4FF48054C2
:103F40000022214683B02846FCF71CFEFF2000908B
:103F50000B48012301AA03A9FEF7DCFE0848FF2352
:103F6000012204A9FEF7C0FD012221462846FCF7E4
:103F700009FE9DF8040005B030BD00000010025895
:103F8000B821002070B50A4E4FF480750022044617
:103F900029463046FCF7F6FD19222146A020FFF7FE
:103FA000A3FF012229463046FCF7ECFD202070BD1E
:103FB00000100258002000F001B8000070B55FF05A
:103FC0000004064604F1B000C0B201F053FD002029
:103FD00001F050FD102001F04DFD0025304601F0AC
:103FE0005BFD6D1CEDB2802DF8D3641CE4B2082C8F
:103FF000E8D370BD642010B5FCF7A8FCAE2001F03A
:1040000039FD202001F036FD102001F033FDB020F5
:1040100001F030FDC82001F02DFD002001F02AFD47
:10402000102001F027FD402001F024FD812001F047
:1040300021FDFF2001F01EFDA12001F01BFDA620A7
:1040400001F018FDA82001F015FD3F2001F012FD40
:10405000A42001F00FFDD32001F00CFD002001F0A1
:1040600009FDD52001F006FDF02001F003FDD92067
:1040700001F000FD222001F0FDFCDA2001F0FAFC45
:10408000122001F0F7FCDB2001F0F4FC202001F00D
:10409000F1FC8D2001F0EEFC142001F0EBFCBDE8FA
:1040A0001040AF2001F0E6BC8D2010B501F0E2FC1D
:1040B000142001F0DFFCBDE81040AF2001F0DABCB5
:1040C000B03110B50446C8B201F0D4FC102040EA6B
:1040D000141001F0CFFC04F00F00BDE8104040F0D8
:1040E000010001F0C7BC00002DE9F047012B91460B
:1040F0008A4604464FF0000522D0DFF8BC80022B30
:1041000024D154E020387E2CC6B204D90AF1010033
:10411000002400F0FF0A20465146FFF7D1FF06EBCE
:104120004601002608EB4107B85D01F0B5FC761C9E
:10413000F6B2062EF8D3A41D6D1CE4B2EDB201E078
:10414000DFF8788019F805000028DBD1BDE8F0879A
:104150002038782CC7B204D90AF10100002400F0FD
:10416000FF0A20465146FFF7ABFF002606EB07117A
:1041700018F8010001F090FC761CF6B2082EF5D379
:104180000AF10100C1B22046FFF79AFF5FF0000676
:1041900006EB071101EB0800007A01F07DFC761CAC
:1041A000F6B2082EF4D308346D1CE4B2EDB219F85F
:1041B00005000028CCD1C9E78E69000866670008B1
:1041C00001480068C0B27047100C02582DE9F04752
:1041D000454D044689464FF0000A2868C0438007D1
:1041E0000AD0414E283E306820F080603060FCF7F5
:1041F000D5FC0746B04608E00120BDE8F08700BFC7
:10420000FCF7CCFCC01B022867D8D8F800000001DE
:10421000F6D4206829684FF4FE0721F47C313E0271
:1042200041EA00302860207AA389B4F804C0400233
:104230002D4D2D495B1E227CACF1010C1035091D62
:10424000A0F5007080B2521ECCF3080C07EA0343BD
:1042500040EA0C00184306EA02621043286008682E
:10426000626920F0C000104308600A68A06922F06B
:10427000200202430A60281D0A6822F010020A6028
:1042800002684FF6F873E4699A4342EAC402026096
:104290000868B9F1000F40F010020A6011D00868F8
:1042A000B9F1010F11D040F400100860D8F80000F7
:1042B000444640F08060C8F80000FCF76FFC0546FB
:1042C0000DE0086840F40020EFE740F48010ECE7D0
:1042D000FCF764FC401B022801D903208DE720680D
:1042E0000001F5D5504688E7284402582DE9F047EB
:1042F000454D044689464FF0000A2868C0438007B0
:104300000AD0414E283E306820F080503060FCF7E3
:1043100045FC0746B04608E00120BDE8F08700BF35
:10432000FCF73CFCC01B022867D8D8F800008000CE
:10433000F6D4208829684FF4FE0721F07C713E02F4
:1043400041EA00502860207AA389B4F804C04002F2
:104350002D4D2D495B1E227CACF1010C1835091D39
:10436000A0F5007080B2521ECCF3080C07EA03439C
:1043700040EA0C00184306EA02621043286008680D
:10438000626920F44060104308600A68A06922F462
:10439000007202430A60281D0A6822F480720A60D3
:1043A00002684FF6F873E4699A4342EAC402026075
:1043B0000868B9F1000F40F480720A6011D00868F3
:1043C000B9F1010F11D040F080700860D8F80000FA
:1043D000444640F08050C8F80000FCF7DFFB05467B
:1043E0000DE0086840F48000EFE740F40000ECE7DF
:1043F000FCF7D4FB401B022801D903208DE720687D
:104400008000F5D5504688E72844025870B5194D0C
:104410004FF40044002221462846FCF7B3FB032159
:104420000846FFF7DBFC144905222A20FFF7AEFC03
:1044300000212120FFF7D2FC01212220FFF7CEFC32
:104440000E4801782520FFF7C9FC19213120FFF71C
:10445000C5FC0B4801782620FFF7C0FC0F21202067
:10446000FFF7BCFC21462846BDE870400122FCF75E
:1044700089BB00000010025861670008530000204B
:10448000000000200E4C00250E4F4FF480760E48A1
:10449000FFF7CAFC78B90C4919220020FCF7FEF896
:1044A0002078401CC0B22070202804D931463846FC
:1044B0002570FCF760FB012001F0BBFBE7E7000083
:1044C0005400002000040258D020002010B50268DB
:1044D00040F26F335169946944F0080494610268B2
:1044E000946944F0100494610268146824F0010493
:1044F0001460026814699C4314610268936823F491
:104500004043936090F88120042A0CD08A060AD593
:10451000D0F8842042F08002C0F8842002689369B9
:1045200043F02003936190F88120032A0CD04A06BF
:104530000AD5D0F8842042F00402C0F88420026832
:10454000936943F0400393618A050AD5D0F884202B
:1045500042F00102C0F884200268936943F40073BA
:104560009361C9050AD5D0F8841041F00801C0F85C
:10457000841001688A6942F480728A610021A0F87F
:104580006210A0F86A1010BD2DE9F0419846164659
:104590000D460746069C09E0FCF700FBA0EB08006F
:1045A000A04202D3601C01D00BE054B138684069CE
:1045B00035EA000007D00020B042EDD00020BDE871
:1045C000F0810320FBE70120F6E7000000B585B08D
:1045D00014216846FBF726FF0020FF210122CDE9C8
:1045E0000010CDE9022003486946FCF7C1F905B087
:1045F00000BD0000000C025800B585B014216846CB
:10460000FBF710FF01200222FF21CDE90010CDE9C8
:10461000020203486946FCF7ABF905B000BD000093
:10462000000C025800210B4A01230846FFF75CFDED
:10463000094A012302210020FFF756FD074C4FF4E1
:104640007A7580212046FCF796FA284601F0F1FAA7
:10465000F7E700002A0000203E0000200004025876
:10466000502010B580F31188BFF34F8FBFF36F8FC9
:1046700001F040FF18B104494FF08050086000205D
:1046800080F3118810BD000004ED00E070B5CCB0DF
:104690004C212FA8FBF7C6FE202142A8FBF7C2FE43
:1046A000BC216846FBF7BEFE0220FCF79BFD2448B8
:1046B00000242449026842F44042026002680A6809
:1046C00042F001020A60096801F001014A910168A3
:1046D0008904FCD54FF4A022012102203890CDE9B5
:1046E0002F1239AA7823142582E80B000C263E905D
:1046F000CDE93C05CDE93F642FA84194FDF790FD3D
:10470000402008230501CDE9453042ABCDE94705FE
:1047100049903F21032283E81600042142A8FDF7B7
:1047200059FBA902084818941D94CDE92041009036
:104730006846FCF7F3FEFCF77DFD4CB070BD000051
:10474000184802582C0400580A200400214A30B5A9
:10475000214914680020204B44F470041460103385
:104760000A681E4D42F001020A6018600A681A4B7E
:104770002A400A6018331C1D251D174A186028326C
:104780002060131D28601C1D251D10602A1D186047
:10479000131D20601C1D2860251D106018602060FE
:1047A00028600A680C4B0E4C22F4802260330A60A9
:1047B000186020686FF30F00B0F1005F03D2094961
:1047C0000120C1F808014FF00060024980390860FB
:1047D00030BD000088ED00E0004402587FEDF6EAAD
:1047E0000010005C008000510148FEF7CCBC0000C6
:1047F0009C2700202DE9F047274B4FF0804A274D9A
:1048000002689842264E274F274C09D0504507D0C2
:10481000A84205D0B04203D0B84201D0A04205D191
:10482000D1F804C022F070024CEA0202DFF87CC02A
:10483000DFF87C809842DFF87C900FD050450DD097
:10484000A8420BD0B04209D0B84207D0A04205D050
:10485000604503D0404501D0484503D1CD6822F4DE
:1048600040722A434D6922F080022A430260984236
:104870008A68C2620A68826207D0A04205D0604599
:1048800003D0404501D0484501D1096901630121A8
:104890004161BDE8F08700000000014000040040D5
:1048A00000080040000C00400004014000400140AE
:1048B000004401400048014070B51E4D4FF4807423
:1048C000002221462846FCF75DF903210846FFF740
:1048D00033FB194905223020FFF706FB1649052254
:1048E0002A20491DFFF700FB19213120FFF724FB87
:1048F00000212120FFF720FB00212220FFF71CFBD5
:1049000000212420FFF718FB0C4801782520FFF731
:1049100013FB0B4801782620FFF70EFB0E21202009
:10492000FFF70AFB21462846BDE870400122FCF74C
:1049300029B90000001002585C67000852000020EE
:10494000000000203FB514A1D1E9002314A1CDE956
:104950000023D1E90021CDE90221416EB9B10168FE
:1049600002AC8A688968C2F34262490F1DF801509F
:10497000615CED00B5FBF1F1A0F86A101DF80210C2
:10498000A25CC900B1FBF2F1A0F868103FBD0121A3
:10499000A0F86A10F8E70000010101030701000018
:1049A000080402040801010190F82810C90706D084
:1049B0000168C36A4A6822F400321A434A6090F8D8
:1049C0002810890706D50168036B4A6822F48032F3
:1049D0001A434A6090F82810490706D50168436BCE
:1049E0004A6822F480221A434A6090F82810090786
:1049F00006D50168836B4A6822F400421A434A6074
:104A000090F82810C90606D50168C36B8A6822F49D
:104A100080521A438A6090F82810890606D50168EA
:104A2000036C8A6822F400521A438A6090F82810B6
:104A3000490611D50168436C4A6822F480121A4372
:104A40004A60416CB1F5801F06D10168836C4A68E9
:104A500022F4C0021A434A6090F82810090606D5CD
:104A60000168C26C486820F4002010434860704719
:104A7000F8B500260446C0F88860FCF78FF80546B4
:104A800020686FF07E470068000708D500222B469B
:104A90004FF400112046009700F022FE60B9206814
:104AA000006840070AD500222B464FF480012046BB
:104AB000009700F015FE08B10320F8BD2020C4F8CF
:104AC000800084F87C60C4F884000020F8BD0000F9
:104AD0002DE9F04F04468068F94E87B02168D4E98B
:104AE0000457E269636E28430D6817433843F54A5B
:104AF00003434FF0000835401D430D602068E36814
:104B0000416821F44051194341602368A0699342F0
:104B100001D0216A08439D68EB4FEC4EEC493D40C3
:104B200005439D602068656AC36A23F00F032B4329
:104B3000C3622068B0420ED1096801F0380118291B
:104B400073D047DCB9B3082979D010296FD178E048
:104B500028297ED17BE0DF4B984209D1096801F01A
:104B60000701062975D2DFE801F0546A6C6E707295
:104B7000D94B984209D1096801F00701062968D28A
:104B8000DFE801F0475D5F616365D44B984209D16E
:104B9000096801F0070106295BD2DFE801F03A500D
:104BA00052545658CE4B98420BD1096801F0070178
:104BB00006294ED200E010E0DFE801F02B4143452A
:104BC0004749C84B98420AD1096801F038011829B1
:104BD00039D0B7DD2029BBD137E001273AE0C24BFD
:104BE000984209D1096801F00701062931D2DFE8AE
:104BF00001F01026282A2C2EBC4B98420BD10968B4
:104C000001F00701062924D2DFE801F003191B1D7A
:104C10001F2100271EE090421BD1AD49091D0968E4
:104C200001F00701062914D202E00CE007E010E0D1
:104C3000DFE801F0030507090B0D02270AE004274E
:104C400008E0082706E0102704E0202702E04027BC
:104C500000E08027DFF898A2DFF898B290424FF486
:104C600080754FF000097AD1102F51D006DC022F49
:104C700009D0042F27D0082F72D12DE0202F70D01B
:104C8000402F6DD1F0E0FCF7F3FA0146606A1FE0B7
:104C9000012827D0022827D0032827D0042827D08E
:104CA000052827D0062827D0072827D0082827D06E
:104CB000092827D00A2827D00B2827D00AE000BFD0
:104CC000B1FBF0F07EE06846FCF7E4FA606A019917
:104CD0000028DDD10120F3E703A8FCF77DFB606A23
:104CE0000499F5E70220EBE70420E9E70620E7E76F
:104CF0000820E5E70A20E3E70C20E1E71020DFE7E2
:104D00002020DDE74020DBE78020D9E72846D7E7F1
:104D1000DBF8000059468006606A39D50968C1F39E
:104D2000C1012AFA01F2A8B101281BD002281BD028
:104D300003281BD004281BD005281BD006281BD015
:104D400007281BD008281BD009281BD00A281BD0F5
:104D50000B281BD05FF00100B2FBF0F032E033E231
:104D6000A2E050E00220F7E70420F5E70620F3E791
:104D70000820F1E70A20EFE70C20EDE71020EBE731
:104D80002020E9E74020E7E78020E5E72846E3E741
:104D9000A8B1012821D0022821D0032821D004283D
:104DA00021D0052821D0062821D0072821D0082885
:104DB00021D0092821D00A2821D00B2821D0012078
:104DC000BAFBF0F000286ED0666806EB460181421F
:104DD0006AD8B0EB063F67D89DE00220F0E70420D8
:104DE000EEE70620ECE70820EAE70A20E8E70C20D7
:104DF000E6E71020E4E72020E2E74020E0E780201B
:104E0000DEE72846DCE7606AA8B1012816D0022850
:104E100016D0032816D0042816D0052816D0062848
:104E200016D0072816D0082816D0092816D00A2828
:104E300016D00B2816D001202F4941E70220FBE7AE
:104E40000420F9E70620F7E70820F5E70A20F3E752
:104E50000C20F1E71020EFE72020EDE74020EBE702
:104E60008020E9E72846E7E7606AA8B1012818D062
:104E700002281AD003281AD004281AD005281AD0DC
:104E800006281AD0072839D0082839D0092839D05F
:104E90000A2839D00B2839D05FF001004FF40041C7
:104EA0000EE70220FAE77CE232E00420F6E7062073
:104EB000F4E70820F2E70A20F0E70C20EEE7000014
:104EC000F369FFCF000C0058FFF4FF110010014000
:104ED000544402580044004000480040004C004048
:104EE000005000400014014000780040007C004069
:104EF0000090D0030044025800093D001020CDE787
:104F00002020CBE74020C9E78020C7E72846C5E737
:104F10004FF0010845E2102F7FD023DC022F4ED046
:104F2000042F75D0082FF3D103A8FCF755FA049984
:104F3000606AA8B1012846D0022846D0032846D08E
:104F4000042846D0052846D0062846D0072846D053
:104F5000082846D0092846D00A2846D00B2845D034
:104F6000012543E0202F7DD0402FD1D1606AA8B128
:104F7000012878D0022877D0032876D0042875D06D
:104F8000052874D0062873D0072872D0082871D05D
:104F9000092870D00A286FD00B2800D001254F4671
:104FA00000232A464FF400400021FBF7F1F90246A6
:104FB0007008130E1202101843EA01216AE0FCF790
:104FC00057F90146B4E7022510E004250EE0062556
:104FD0000CE008250AE00A2508E00C2506E010256B
:104FE00004E0202502E0402500E080254E46002315
:104FF0002A4608461946FBF7CBF962680902030204
:1050000041EA106150081818714145E005E0FFE7DA
:105010006846FCF73FF901998AE7DBF8001058462B
:10502000890656D50068C0F3C1002AFA00F1606A0B
:10503000A8B1012839D0022839D0032839D0042852
:1050400039D0052839D0062839D0072839D0082882
:1050500039D0092839D00A2839D00B2800D00125A9
:105060002A460AE067E099E09AE09BE09CE09DE038
:105070009EE09FE0A0E0A1E0A2E000234F460846AA
:105080001946FBF785F909020346720800028018E9
:1050900041EA1361324679410023FBF779F9FA4975
:1050A000A0F540728A426ED932E70225D8E704257E
:1050B000D6E70625D4E70825D2E70A25D0E70C2550
:1050C000CEE71025CCE72025CAE74025C8E7802594
:1050D000C6E7606AA8B1012819D0022819D00328B0
:1050E00019D0042819D0052819D0062819D0072866
:1050F00019D0082819D0092819D00A2819D00B2846
:1051000000D001254F4600232A4650464CE7022591
:10511000F8E70425F6E70625F4E70825F2E70A256F
:10512000F0E70C25EEE71025ECE72025EAE740251F
:10513000E8E78025E6E7606AA8B1012819D00228CF
:1051400019D0032819D0042819D0052819D0062809
:105150001AD007281AD008281AD009281AD00A28E5
:105160001AD00B2800D00125C84800234F462A46F4
:105170001AE70225F8E70425F6E70625F4E70825EF
:10518000F2E70A25F0E71DE00C25EDE71025EBE737
:105190002025E9E74025E7E78025E5E70225FEE64B
:1051A0000425FCE60625FAE60825F8E60A25F6E6D3
:1051B0000C25F4E61025F2E62025F0E64025EEE683
:1051C0008025ECE62168EBE0E0694FF400414FF602
:1051D000EF7688426FD1082F65D00BDC6FB3012FBB
:1051E0005CD0042F7FF460AF6846FCF753F8606A28
:1051F00001995DE0102F5FD0202F7DD0402FF1D19D
:10520000606AA8B1012878D0022877D0032876D028
:10521000042875D0052874D0062873D0072872D0CA
:10522000082871D0092870D00A286FD00B2800D028
:1052300001256068B1FBF5F1A0E0FCF731FF2FE03C
:10524000012815D0022815D0032815D0042815D020
:10525000052815D0062815D0072815D0082815D000
:10526000092815D00A2815D00B2814D0012512E0E2
:10527000022510E004250EE006250CE008250AE0D2
:105280000A2508E00C2506E0102504E0202502E0B0
:10529000402500E08025B1FBF5F13EE0FCF712FF70
:1052A0000146606A04E003A8FCF796F8606A049976
:1052B0000028DBD0C4E7D8E0DBF8000059468006C0
:1052C000606A40D50968C1F3C1012AFA01F208B346
:1052D000012824D0022824D0032824D0042824D054
:1052E000052824D0062824D0072824D0082824D034
:1052F000092824D00A280AE074E0A2E0A3E0A4E090
:10530000A5E0A6E0A7E0A8E0A9E0AAE0ABE018D0FD
:105310000B2800D00125B2FBF5F160682EE00225D4
:10532000F9E70425F7E70625F5E70825F3E70A2559
:10533000F1E70C25EFE71025EDE72025EBE7402509
:10534000E9E78025E7E7A8B1012837D0022837D060
:10535000032837D0042837D0052837D0062837D07F
:10536000072837D0082837D0092837D00A2837D05F
:105370000B2800D001256068BAFBF5F1490001EB6C
:105380005001B1FBF0F080B2A0F11001B1423FF644
:105390008BAE4FF6F0732168C0F342021840104301
:1053A000C8600121A4F86A104046A4F86810C4F847
:1053B0006C90C4F8709007B0BDE8F08F0225DAE772
:1053C0000425D8E70625D6E70825D4E70A25D2E73D
:1053D0000C25D0E71025CEE72025CCE74025CAE7ED
:1053E0008025C8E7606AA8B1012816D0022816D027
:1053F000032816D0042816D0052816D0062816D063
:10540000072816D0082816D0092816D00A2816D042
:105410000B2800D001251D490BE70225FBE70425D9
:10542000F9E70625F7E70825F5E70A25F3E70C2550
:10543000F1E71025EFE72025EDE74025EBE7802594
:10544000E9E70225F5E60425F3E60625F1E6082559
:10545000EFE60A25EDE60C25EBE61025E9E620252A
:10546000E7E64025E5E68025E3E6082F6AD00FDC75
:105470008FB3012F61D0042F7FF416AE6846FBF77F
:1054800009FF606A019962E0FFFC0F0000093D001E
:10549000102F5FD0202F7DD0402FEDD1606AA8B1B2
:1054A000012878D0022877D0032876D0042875D038
:1054B000052874D0062873D0072872D0082871D028
:1054C000092870D00A286FD00B2800D00125606809
:1054D000B1FBF5F1A0E0FFE7FCF7E2FD2FE00128CA
:1054E00015D0022815D0032815D0042815D005287A
:1054F00015D0062815D0072815D0082815D009285A
:1055000015D00A2815D00B2814D0012512E0022549
:1055100010E004250EE006250CE008250AE00A2527
:1055200008E00C2506E0102504E0202502E04025D7
:1055300000E08025B1FBF5F13DE0FCF7C3FD01463D
:10554000606A04E003A8FBF747FF606A049900283B
:10555000DBD0C4E7DBF8000059468006606A40D51E
:105560000968C1F3C1012AFA01F208B3012824D065
:10557000022824D0032824D0042824D0052824D0AD
:10558000062824D0072824D0082824D0092824D08D
:105590000A280AE05FE08DE08EE08FE090E091E085
:1055A00092E093E094E095E096E018D00B2800D0CC
:1055B0000125B2FBF5F160682EE00225F9E704252C
:1055C000F7E70625F5E70825F3E70A25F1E70C25B7
:1055D000EFE71025EDE72025EBE74025E9E78025FB
:1055E000E7E7A8B1012822D0022822D0032822D040
:1055F000042822D0052822D0062822D0072822D02D
:10560000082822D0092822D00A2822D00B2800D02E
:1056100001256068BAFBF5F101EB5001B1FBF0F038
:1056200080B2A0F11001B1427FF6CCAD70E402254A
:10563000EFE70425EDE70625EBE70825E9E70A256E
:10564000E7E70C25E5E71025E3E72025E1E740251E
:10565000DFE78025DDE7606AA8B1012816D00228BF
:1056600016D0032816D0042816D0052816D00628F0
:1056700016D0072816D0082816D0092816D00A28D0
:1056800016D00B2800D00125144920E70225FBE79E
:105690000425F9E70625F7E70825F5E70A25F3E7E6
:1056A0000C25F1E71025EFE72025EDE74025EBE796
:1056B0008025E9E702250AE7042508E7062506E72D
:1056C000082504E70A2502E70C2500E71025FEE679
:1056D0002025FCE64025FAE68025F8E600093D0095
:1056E0002DE9F0479A4617460E460446089D4FF0AE
:1056F00000094FF0200839E0681C37D0FBF74EFA5C
:10570000A0EB0A00A84222D80DB32068016849071F
:105710002CD5C069C043000528D423684FF400612C
:10572000196221680B6823F4D0730B6021688B68C1
:1057300023F001038B60C4F88080C4F88480C4F82F
:10574000888000BF032084F87C90BDE8F087216842
:105750000B6823F4D0730B6021688B6823F001037E
:105760008B60C4F88080C4F88480EBE72068C0694F
:1057700036EA000004D00020B842BDD00020E4E7A3
:105780000120F9E7064D4FF4807421462846FBF7C7
:10579000EDF908B9FAF740FF032000F04AFAF4E700
:1057A0000008025870B5044606990A9E049D012916
:1057B0000D9816D0E06840F04000E060204600F010
:1057C0002DF8A16B26B321F48031A163012D07D1FF
:1057D000A16841F00801A160A16841F02001A16029
:1057E00070BDA26B01280C4922F48030A063E068F0
:1057F00000EA0100E060E06820F44010E06003D1BE
:10580000E06840F48010E060204600F007F8DDE733
:1058100041F48031D9E70000BFFFBDFF0C490122F0
:1058200002E0521C8A420BD80369002BF9DA0369A3
:10583000012243F00103036104E0521C8A4201D9B2
:10584000032070470369DB07F7D100207047000091
:10585000400D030010B5D0F8041841F00201C0F863
:1058600004180320FBF772F8002010BD2DE9F04F5B
:105870000E4604460021DDE90B2BDDF840800D4685
:10588000099F084604EB800CCCF80411401C0F283B
:10589000F8D32046A06BB8F1000F13D040F4001CE1
:1058A000C4F838C089460846C4F8000E2046D4F82B
:1058B0000018012AC4F8001813D0D0F8001841F0DD
:1058C000030113E020F4001CC4F838C0206840F045
:1058D000400CC4F800C0206840F0800CC4F800C040
:1058E000E0E7D0F800180BB141F00101C0F8001852
:1058F000102100F095F800B10125204600F080F855
:1059000000B1012548464FF0006C4FF67F334FF051
:10591000904AC4F81098C4F81498C4F81C98002150
:10592000994613E004EB4112D2F80039002B06DA55
:1059300011B1C2F800A904E0C4F800C901E0C2F83E
:105940000009C2F81009C2F80899491C8E42E9D82A
:10595000002113E004EB4112D2F8003B002B06DAE1
:1059600011B1C2F800AB04E0C4F800CB01E0C2F80A
:10597000000BC2F8100BC2F8089B491C8E42E9D8F4
:10598000D4F81018012F21F480722146C4F8102891
:1059900008D1144B144AC1F83038D1F830181143EB
:1059A000C4F830186FF08041A06161611FB9A0692F
:1059B00040F01000A061A069BBF1000F0B4A40EA63
:1059C0000200A06103D0A06940F00800A061B8F116
:1059D000010F03D1A06906490843A0612846BDE82C
:1059E000F08F0000000180000300010000383C80BF
:1059F00004000040816821F00101816000207047AF
:105A0000064A102101610021491C914201D903205D
:105A100070470369DB06F7D400207047400D030090
:105A20002023074A43EA811303610021491C914264
:105A300001D90320704703699B06F7D40020704703
:105A4000400D030010B5C268012922F0C042C260B7
:105A500002D029B1012010BDC16841F0005102E01F
:105A6000C16841F08041C1603220FAF76FFF002029
:105A700010BDFEE701B584B06422012104A80B46E5
:105A80008DE80700034800227821FBF73FF905B0B5
:105A900000BD00006C21002001B584B0642201210A
:105AA00004A80B468DE80700034840227821FBF745
:105AB0002DF905B000BD00006C2100200907002869
:105AC0004FEA116104DB00F1E02080F80014704718
:105AD00000F00F0000F1E02080F8141D704702E094
